{
  "_format": "hh-sol-artifact-1",
  "contractName": "LandRegistration",
  "sourceName": "contracts/LandManagement.sol",
  "abi": [
    {
      "inputs": [
        {
          "internalType": "address",
          "name": "spender",
          "type": "address"
        },
        {
          "internalType": "uint256",
          "name": "allowance",
          "type": "uint256"
        },
        {
          "internalType": "uint256",
          "name": "needed",
          "type": "uint256"
        }
      ],
      "name": "ERC20InsufficientAllowance",
      "type": "error"
    },
    {
      "inputs": [
        {
          "internalType": "address",
          "name": "sender",
          "type": "address"
        },
        {
          "internalType": "uint256",
          "name": "balance",
          "type": "uint256"
        },
        {
          "internalType": "uint256",
          "name": "needed",
          "type": "uint256"
        }
      ],
      "name": "ERC20InsufficientBalance",
      "type": "error"
    },
    {
      "inputs": [
        {
          "internalType": "address",
          "name": "approver",
          "type": "address"
        }
      ],
      "name": "ERC20InvalidApprover",
      "type": "error"
    },
    {
      "inputs": [
        {
          "internalType": "address",
          "name": "receiver",
          "type": "address"
        }
      ],
      "name": "ERC20InvalidReceiver",
      "type": "error"
    },
    {
      "inputs": [
        {
          "internalType": "address",
          "name": "sender",
          "type": "address"
        }
      ],
      "name": "ERC20InvalidSender",
      "type": "error"
    },
    {
      "inputs": [
        {
          "internalType": "address",
          "name": "spender",
          "type": "address"
        }
      ],
      "name": "ERC20InvalidSpender",
      "type": "error"
    },
    {
      "anonymous": false,
      "inputs": [
        {
          "indexed": true,
          "internalType": "address",
          "name": "owner",
          "type": "address"
        },
        {
          "indexed": true,
          "internalType": "address",
          "name": "spender",
          "type": "address"
        },
        {
          "indexed": false,
          "internalType": "uint256",
          "name": "value",
          "type": "uint256"
        }
      ],
      "name": "Approval",
      "type": "event"
    },
    {
      "anonymous": false,
      "inputs": [
        {
          "indexed": true,
          "internalType": "address",
          "name": "",
          "type": "address"
        },
        {
          "indexed": true,
          "internalType": "uint256",
          "name": "",
          "type": "uint256"
        },
        {
          "indexed": true,
          "internalType": "uint256",
          "name": "",
          "type": "uint256"
        }
      ],
      "name": "LandAdded",
      "type": "event"
    },
    {
      "anonymous": false,
      "inputs": [
        {
          "indexed": true,
          "internalType": "address",
          "name": "",
          "type": "address"
        },
        {
          "indexed": true,
          "internalType": "string",
          "name": "",
          "type": "string"
        },
        {
          "indexed": true,
          "internalType": "uint256",
          "name": "",
          "type": "uint256"
        }
      ],
      "name": "LandInspectorAdded",
      "type": "event"
    },
    {
      "anonymous": false,
      "inputs": [
        {
          "indexed": true,
          "internalType": "address",
          "name": "",
          "type": "address"
        },
        {
          "indexed": true,
          "internalType": "uint256",
          "name": "",
          "type": "uint256"
        }
      ],
      "name": "SellerAdded",
      "type": "event"
    },
    {
      "anonymous": false,
      "inputs": [
        {
          "indexed": true,
          "internalType": "address",
          "name": "from",
          "type": "address"
        },
        {
          "indexed": true,
          "internalType": "address",
          "name": "to",
          "type": "address"
        },
        {
          "indexed": false,
          "internalType": "uint256",
          "name": "value",
          "type": "uint256"
        }
      ],
      "name": "Transfer",
      "type": "event"
    },
    {
      "anonymous": false,
      "inputs": [
        {
          "indexed": true,
          "internalType": "address",
          "name": "_from",
          "type": "address"
        },
        {
          "indexed": true,
          "internalType": "address",
          "name": "_to",
          "type": "address"
        },
        {
          "indexed": true,
          "internalType": "uint256",
          "name": "_amount",
          "type": "uint256"
        }
      ],
      "name": "amountTransfered",
      "type": "event"
    },
    {
      "inputs": [],
      "name": "TOTAL_LAND_SUPPLY",
      "outputs": [
        {
          "internalType": "uint256",
          "name": "",
          "type": "uint256"
        }
      ],
      "stateMutability": "view",
      "type": "function"
    },
    {
      "inputs": [
        {
          "internalType": "uint256",
          "name": "_PID",
          "type": "uint256"
        }
      ],
      "name": "_purchaseLand",
      "outputs": [],
      "stateMutability": "payable",
      "type": "function"
    },
    {
      "inputs": [
        {
          "internalType": "string",
          "name": "_name",
          "type": "string"
        },
        {
          "internalType": "uint8",
          "name": "_age",
          "type": "uint8"
        },
        {
          "internalType": "uint256",
          "name": "_aadhar",
          "type": "uint256"
        },
        {
          "internalType": "string",
          "name": "_pan",
          "type": "string"
        }
      ],
      "name": "addBuyers",
      "outputs": [],
      "stateMutability": "nonpayable",
      "type": "function"
    },
    {
      "inputs": [
        {
          "internalType": "uint256",
          "name": "_area",
          "type": "uint256"
        },
        {
          "internalType": "string",
          "name": "_city",
          "type": "string"
        },
        {
          "internalType": "string",
          "name": "_state",
          "type": "string"
        },
        {
          "internalType": "uint256",
          "name": "_price",
          "type": "uint256"
        },
        {
          "internalType": "uint256",
          "name": "_PID",
          "type": "uint256"
        },
        {
          "internalType": "uint256",
          "name": "_surveyNumber",
          "type": "uint256"
        }
      ],
      "name": "addLand",
      "outputs": [],
      "stateMutability": "nonpayable",
      "type": "function"
    },
    {
      "inputs": [
        {
          "internalType": "string",
          "name": "_name",
          "type": "string"
        },
        {
          "internalType": "uint8",
          "name": "_age",
          "type": "uint8"
        },
        {
          "internalType": "uint256",
          "name": "_aadhar",
          "type": "uint256"
        },
        {
          "internalType": "string",
          "name": "_pan",
          "type": "string"
        }
      ],
      "name": "addLandInspector",
      "outputs": [],
      "stateMutability": "nonpayable",
      "type": "function"
    },
    {
      "inputs": [
        {
          "internalType": "string",
          "name": "_name",
          "type": "string"
        },
        {
          "internalType": "uint8",
          "name": "_age",
          "type": "uint8"
        },
        {
          "internalType": "uint256",
          "name": "_aadhar",
          "type": "uint256"
        },
        {
          "internalType": "string",
          "name": "_pan",
          "type": "string"
        }
      ],
      "name": "addSellers",
      "outputs": [],
      "stateMutability": "nonpayable",
      "type": "function"
    },
    {
      "inputs": [
        {
          "internalType": "uint256",
          "name": "",
          "type": "uint256"
        }
      ],
      "name": "allLands",
      "outputs": [
        {
          "internalType": "bool",
          "name": "",
          "type": "bool"
        }
      ],
      "stateMutability": "view",
      "type": "function"
    },
    {
      "inputs": [
        {
          "internalType": "address",
          "name": "owner",
          "type": "address"
        },
        {
          "internalType": "address",
          "name": "spender",
          "type": "address"
        }
      ],
      "name": "allowance",
      "outputs": [
        {
          "internalType": "uint256",
          "name": "",
          "type": "uint256"
        }
      ],
      "stateMutability": "view",
      "type": "function"
    },
    {
      "inputs": [
        {
          "internalType": "address",
          "name": "spender",
          "type": "address"
        },
        {
          "internalType": "uint256",
          "name": "value",
          "type": "uint256"
        }
      ],
      "name": "approve",
      "outputs": [
        {
          "internalType": "bool",
          "name": "",
          "type": "bool"
        }
      ],
      "stateMutability": "nonpayable",
      "type": "function"
    },
    {
      "inputs": [
        {
          "internalType": "address",
          "name": "account",
          "type": "address"
        }
      ],
      "name": "balanceOf",
      "outputs": [
        {
          "internalType": "uint256",
          "name": "",
          "type": "uint256"
        }
      ],
      "stateMutability": "view",
      "type": "function"
    },
    {
      "inputs": [],
      "name": "decimals",
      "outputs": [
        {
          "internalType": "uint8",
          "name": "",
          "type": "uint8"
        }
      ],
      "stateMutability": "view",
      "type": "function"
    },
    {
      "inputs": [
        {
          "internalType": "uint256",
          "name": "_PID",
          "type": "uint256"
        }
      ],
      "name": "getArea",
      "outputs": [
        {
          "internalType": "uint256",
          "name": "_area",
          "type": "uint256"
        }
      ],
      "stateMutability": "view",
      "type": "function"
    },
    {
      "inputs": [
        {
          "internalType": "uint256",
          "name": "_PID",
          "type": "uint256"
        }
      ],
      "name": "getCity",
      "outputs": [
        {
          "internalType": "string",
          "name": "_city",
          "type": "string"
        }
      ],
      "stateMutability": "view",
      "type": "function"
    },
    {
      "inputs": [
        {
          "internalType": "uint256",
          "name": "_PID",
          "type": "uint256"
        }
      ],
      "name": "getOwner",
      "outputs": [
        {
          "internalType": "address",
          "name": "_owner",
          "type": "address"
        }
      ],
      "stateMutability": "view",
      "type": "function"
    },
    {
      "inputs": [
        {
          "internalType": "uint256",
          "name": "_PID",
          "type": "uint256"
        }
      ],
      "name": "getPrice",
      "outputs": [
        {
          "internalType": "uint256",
          "name": "_price",
          "type": "uint256"
        }
      ],
      "stateMutability": "view",
      "type": "function"
    },
    {
      "inputs": [
        {
          "internalType": "address",
          "name": "_buyer",
          "type": "address"
        }
      ],
      "name": "isVerifiedBuyer",
      "outputs": [
        {
          "internalType": "bool",
          "name": "",
          "type": "bool"
        }
      ],
      "stateMutability": "view",
      "type": "function"
    },
    {
      "inputs": [
        {
          "internalType": "uint256",
          "name": "_PID",
          "type": "uint256"
        }
      ],
      "name": "isVerifiedLand",
      "outputs": [
        {
          "internalType": "bool",
          "name": "",
          "type": "bool"
        }
      ],
      "stateMutability": "view",
      "type": "function"
    },
    {
      "inputs": [
        {
          "internalType": "address",
          "name": "_seller",
          "type": "address"
        }
      ],
      "name": "isVerifiedSeller",
      "outputs": [
        {
          "internalType": "bool",
          "name": "",
          "type": "bool"
        }
      ],
      "stateMutability": "view",
      "type": "function"
    },
    {
      "inputs": [],
      "name": "name",
      "outputs": [
        {
          "internalType": "string",
          "name": "",
          "type": "string"
        }
      ],
      "stateMutability": "view",
      "type": "function"
    },
    {
      "inputs": [],
      "name": "owner",
      "outputs": [
        {
          "internalType": "address",
          "name": "",
          "type": "address"
        }
      ],
      "stateMutability": "view",
      "type": "function"
    },
    {
      "inputs": [
        {
          "internalType": "address",
          "name": "_buyer",
          "type": "address"
        },
        {
          "internalType": "address",
          "name": "_seller",
          "type": "address"
        },
        {
          "internalType": "uint256",
          "name": "_LandPrice",
          "type": "uint256"
        }
      ],
      "name": "purchaseLand",
      "outputs": [],
      "stateMutability": "payable",
      "type": "function"
    },
    {
      "inputs": [
        {
          "internalType": "address",
          "name": "_buyer",
          "type": "address"
        }
      ],
      "name": "rejectBuyer",
      "outputs": [],
      "stateMutability": "nonpayable",
      "type": "function"
    },
    {
      "inputs": [
        {
          "internalType": "uint256",
          "name": "_PID",
          "type": "uint256"
        }
      ],
      "name": "rejectLand",
      "outputs": [],
      "stateMutability": "nonpayable",
      "type": "function"
    },
    {
      "inputs": [
        {
          "internalType": "address",
          "name": "_seller",
          "type": "address"
        }
      ],
      "name": "rejectSeller",
      "outputs": [],
      "stateMutability": "nonpayable",
      "type": "function"
    },
    {
      "inputs": [
        {
          "internalType": "uint256",
          "name": "_PID",
          "type": "uint256"
        }
      ],
      "name": "requestLand",
      "outputs": [],
      "stateMutability": "nonpayable",
      "type": "function"
    },
    {
      "inputs": [
        {
          "internalType": "uint256",
          "name": "_PID",
          "type": "uint256"
        }
      ],
      "name": "setSale",
      "outputs": [],
      "stateMutability": "nonpayable",
      "type": "function"
    },
    {
      "inputs": [],
      "name": "symbol",
      "outputs": [
        {
          "internalType": "string",
          "name": "",
          "type": "string"
        }
      ],
      "stateMutability": "view",
      "type": "function"
    },
    {
      "inputs": [],
      "name": "totalSupply",
      "outputs": [
        {
          "internalType": "uint256",
          "name": "",
          "type": "uint256"
        }
      ],
      "stateMutability": "view",
      "type": "function"
    },
    {
      "inputs": [
        {
          "internalType": "address",
          "name": "to",
          "type": "address"
        },
        {
          "internalType": "uint256",
          "name": "value",
          "type": "uint256"
        }
      ],
      "name": "transfer",
      "outputs": [
        {
          "internalType": "bool",
          "name": "",
          "type": "bool"
        }
      ],
      "stateMutability": "nonpayable",
      "type": "function"
    },
    {
      "inputs": [
        {
          "internalType": "address",
          "name": "from",
          "type": "address"
        },
        {
          "internalType": "address",
          "name": "to",
          "type": "address"
        },
        {
          "internalType": "uint256",
          "name": "value",
          "type": "uint256"
        }
      ],
      "name": "transferFrom",
      "outputs": [
        {
          "internalType": "bool",
          "name": "",
          "type": "bool"
        }
      ],
      "stateMutability": "nonpayable",
      "type": "function"
    },
    {
      "inputs": [
        {
          "internalType": "address",
          "name": "_to",
          "type": "address"
        },
        {
          "internalType": "uint256",
          "name": "_PID",
          "type": "uint256"
        }
      ],
      "name": "transferLand",
      "outputs": [],
      "stateMutability": "nonpayable",
      "type": "function"
    },
    {
      "inputs": [
        {
          "internalType": "address",
          "name": "_buyer",
          "type": "address"
        }
      ],
      "name": "verifyBuyer",
      "outputs": [],
      "stateMutability": "nonpayable",
      "type": "function"
    },
    {
      "inputs": [
        {
          "internalType": "uint256",
          "name": "_PID",
          "type": "uint256"
        }
      ],
      "name": "verifyLand",
      "outputs": [],
      "stateMutability": "nonpayable",
      "type": "function"
    },
    {
      "inputs": [
        {
          "internalType": "address",
          "name": "_seller",
          "type": "address"
        }
      ],
      "name": "verifySeller",
      "outputs": [],
      "stateMutability": "nonpayable",
      "type": "function"
    }
  ],
  "bytecode": "0x60806040523480156200001157600080fd5b506040518060400160405280600a81526020017f4c414e4420546f6b656e000000000000000000000000000000000000000000008152506040518060400160405280600381526020017f4c414e000000000000000000000000000000000000000000000000000000000081525081600390816200008f91906200063e565b508060049081620000a191906200063e565b505050620000c03369d3c21bcecceda10000006200010760201b60201c565b33600560006101000a81548173ffffffffffffffffffffffffffffffffffffffff021916908373ffffffffffffffffffffffffffffffffffffffff1602179055506200085c565b600073ffffffffffffffffffffffffffffffffffffffff168273ffffffffffffffffffffffffffffffffffffffff16036200017c5760006040517fec442f050000000000000000000000000000000000000000000000000000000081526004016200017391906200076a565b60405180910390fd5b62000190600083836200019460201b60201c565b5050565b600073ffffffffffffffffffffffffffffffffffffffff168373ffffffffffffffffffffffffffffffffffffffff1603620001ea578060026000828254620001dd9190620007b6565b92505081905550620002c0565b60008060008573ffffffffffffffffffffffffffffffffffffffff1673ffffffffffffffffffffffffffffffffffffffff1681526020019081526020016000205490508181101562000279578381836040517fe450d38c000000000000000000000000000000000000000000000000000000008152600401620002709392919062000802565b60405180910390fd5b8181036000808673ffffffffffffffffffffffffffffffffffffffff1673ffffffffffffffffffffffffffffffffffffffff16815260200190815260200160002081905550505b600073ffffffffffffffffffffffffffffffffffffffff168273ffffffffffffffffffffffffffffffffffffffff16036200030b578060026000828254039250508190555062000358565b806000808473ffffffffffffffffffffffffffffffffffffffff1673ffffffffffffffffffffffffffffffffffffffff168152602001908152602001600020600082825401925050819055505b8173ffffffffffffffffffffffffffffffffffffffff168373ffffffffffffffffffffffffffffffffffffffff167fddf252ad1be2c89b69c2b068fc378daa952ba7f163c4a11628f55a4df523b3ef83604051620003b791906200083f565b60405180910390a3505050565b600081519050919050565b7f4e487b7100000000000000000000000000000000000000000000000000000000600052604160045260246000fd5b7f4e487b7100000000000000000000000000000000000000000000000000000000600052602260045260246000fd5b600060028204905060018216806200044657607f821691505b6020821081036200045c576200045b620003fe565b5b50919050565b60008190508160005260206000209050919050565b60006020601f8301049050919050565b600082821b905092915050565b600060088302620004c67fffffffffffffffffffffffffffffffffffffffffffffffffffffffffffffffff8262000487565b620004d2868362000487565b95508019841693508086168417925050509392505050565b6000819050919050565b6000819050919050565b60006200051f620005196200051384620004ea565b620004f4565b620004ea565b9050919050565b6000819050919050565b6200053b83620004fe565b620005536200054a8262000526565b84845462000494565b825550505050565b600090565b6200056a6200055b565b6200057781848462000530565b505050565b5b818110156200059f576200059360008262000560565b6001810190506200057d565b5050565b601f821115620005ee57620005b88162000462565b620005c38462000477565b81016020851015620005d3578190505b620005eb620005e28562000477565b8301826200057c565b50505b505050565b600082821c905092915050565b60006200061360001984600802620005f3565b1980831691505092915050565b60006200062e838362000600565b9150826002028217905092915050565b6200064982620003c4565b67ffffffffffffffff811115620006655762000664620003cf565b5b6200067182546200042d565b6200067e828285620005a3565b600060209050601f831160018114620006b65760008415620006a1578287015190505b620006ad858262000620565b8655506200071d565b601f198416620006c68662000462565b60005b82811015620006f057848901518255600182019150602085019450602081019050620006c9565b868310156200071057848901516200070c601f89168262000600565b8355505b6001600288020188555050505b505050505050565b600073ffffffffffffffffffffffffffffffffffffffff82169050919050565b6000620007528262000725565b9050919050565b620007648162000745565b82525050565b600060208201905062000781600083018462000759565b92915050565b7f4e487b7100000000000000000000000000000000000000000000000000000000600052601160045260246000fd5b6000620007c382620004ea565b9150620007d083620004ea565b9250828201905080821115620007eb57620007ea62000787565b5b92915050565b620007fc81620004ea565b82525050565b600060608201905062000819600083018662000759565b620008286020830185620007f1565b620008376040830184620007f1565b949350505050565b6000602082019050620008566000830184620007f1565b92915050565b615ed4806200086c6000396000f3fe6080604052600436106101f95760003560e01c80638965cde11161010d578063c41a360a116100a0578063e1ecc7941161006f578063e1ecc79414610792578063e7572230146107bb578063f5a828bf146107f8578063f9c43bdf14610821578063fa85cb291461084a576101f9565b8063c41a360a146106b2578063d1760e60146106ef578063d713065114610718578063dd62ed3e14610755576101f9565b8063aa8eade3116100dc578063aa8eade3146105f8578063aae5620d14610623578063b091c81b1461064c578063b3f40d6a14610689576101f9565b80638965cde11461053c5780638da5cb5b1461056557806395d89b4114610590578063a9059cbb146105bb576101f9565b8063313ce5671161019057806354079ee11161015f57806354079ee1146104475780636490c7a8146104705780636814800b146104ad57806370a08231146104d6578063717c381414610513576101f9565b8063313ce56714610379578063360d0f9f146103a457806341697be0146103e15780634c3231af1461041e576101f9565b806318160ddd116101cc57806318160ddd146102ab5780631ca1413c146102d657806323b872dd146102ff57806327b2f3a01461033c576101f9565b806306fdde03146101fe5780630749dd7a14610229578063095ea7b3146102525780631046137b1461028f575b600080fd5b34801561020a57600080fd5b50610213610866565b60405161022091906149ca565b60405180910390f35b34801561023557600080fd5b50610250600480360381019061024b9190614ba4565b6108f8565b005b34801561025e57600080fd5b5061027960048036038101906102749190614ca1565b610bcc565b6040516102869190614cfc565b60405180910390f35b6102a960048036038101906102a49190614d17565b610bef565b005b3480156102b757600080fd5b506102c06111c8565b6040516102cd9190614d53565b60405180910390f35b3480156102e257600080fd5b506102fd60048036038101906102f89190614ba4565b6111d2565b005b34801561030b57600080fd5b5061032660048036038101906103219190614d6e565b611412565b6040516103339190614cfc565b60405180910390f35b34801561034857600080fd5b50610363600480360381019061035e9190614d17565b611441565b6040516103709190614cfc565b60405180910390f35b34801561038557600080fd5b5061038e6114d0565b60405161039b9190614dd0565b60405180910390f35b3480156103b057600080fd5b506103cb60048036038101906103c69190614deb565b6114d9565b6040516103d89190614cfc565b60405180910390f35b3480156103ed57600080fd5b5061040860048036038101906104039190614d17565b61162c565b6040516104159190614cfc565b60405180910390f35b34801561042a57600080fd5b5061044560048036038101906104409190614d17565b61164c565b005b34801561045357600080fd5b5061046e60048036038101906104699190614e18565b61187c565b005b34801561047c57600080fd5b5061049760048036038101906104929190614d17565b611c3d565b6040516104a49190614d53565b60405180910390f35b3480156104b957600080fd5b506104d460048036038101906104cf9190614deb565b611cbf565b005b3480156104e257600080fd5b506104fd60048036038101906104f89190614deb565b612093565b60405161050a9190614d53565b60405180910390f35b34801561051f57600080fd5b5061053a60048036038101906105359190614d17565b6120db565b005b34801561054857600080fd5b50610563600480360381019061055e9190614deb565b6125d9565b005b34801561057157600080fd5b5061057a6129ad565b6040516105879190614eec565b60405180910390f35b34801561059c57600080fd5b506105a56129d3565b6040516105b291906149ca565b60405180910390f35b3480156105c757600080fd5b506105e260048036038101906105dd9190614ca1565b612a65565b6040516105ef9190614cfc565b60405180910390f35b34801561060457600080fd5b5061060d612a88565b60405161061a9190614d53565b60405180910390f35b34801561062f57600080fd5b5061064a60048036038101906106459190614d17565b612a96565b005b34801561065857600080fd5b50610673600480360381019061066e9190614deb565b612ced565b6040516106809190614cfc565b60405180910390f35b34801561069557600080fd5b506106b060048036038101906106ab9190614ca1565b612e40565b005b3480156106be57600080fd5b506106d960048036038101906106d49190614d17565b61329d565b6040516106e69190614eec565b60405180910390f35b3480156106fb57600080fd5b5061071660048036038101906107119190614deb565b61333f565b005b34801561072457600080fd5b5061073f600480360381019061073a9190614d17565b6137a3565b60405161074c91906149ca565b60405180910390f35b34801561076157600080fd5b5061077c60048036038101906107779190614f07565b6138ad565b6040516107899190614d53565b60405180910390f35b34801561079e57600080fd5b506107b960048036038101906107b49190614deb565b613934565b005b3480156107c757600080fd5b506107e260048036038101906107dd9190614d17565b613d97565b6040516107ef9190614d53565b60405180910390f35b34801561080457600080fd5b5061081f600480360381019061081a9190614ba4565b613e19565b005b34801561082d57600080fd5b5061084860048036038101906108439190614d17565b61409d565b005b610864600480360381019061085f9190614d6e565b614331565b005b60606003805461087590614f76565b80601f01602080910402602001604051908101604052809291908181526020018280546108a190614f76565b80156108ee5780601f106108c3576101008083540402835291602001916108ee565b820191906000526020600020905b8154815290600101906020018083116108d157829003601f168201915b5050505050905090565b600073ffffffffffffffffffffffffffffffffffffffff163373ffffffffffffffffffffffffffffffffffffffff1603610967576040517f08c379a000000000000000000000000000000000000000000000000000000000815260040161095e90614ff3565b60405180910390fd5b600660003373ffffffffffffffffffffffffffffffffffffffff1673ffffffffffffffffffffffffffffffffffffffff16815260200190815260200160002060009054906101000a900460ff16156109f4576040517f08c379a00000000000000000000000000000000000000000000000000000000081526004016109eb90615085565b60405180910390fd5b6001600660003373ffffffffffffffffffffffffffffffffffffffff1673ffffffffffffffffffffffffffffffffffffffff16815260200190815260200160002060006101000a81548160ff02191690831515021790555060405180608001604052808581526020018460ff16815260200183815260200182815250600760003373ffffffffffffffffffffffffffffffffffffffff1673ffffffffffffffffffffffffffffffffffffffff1681526020019081526020016000206000820151816000019081610ac4919061525c565b5060208201518160010160006101000a81548160ff021916908360ff160217905550604082015181600201556060820151816003019081610b05919061525c565b509050506008339080600181540180825580915050600190039060005260206000200160009091909190916101000a81548173ffffffffffffffffffffffffffffffffffffffff021916908373ffffffffffffffffffffffffffffffffffffffff1602179055508184604051610b7b919061536a565b60405180910390203373ffffffffffffffffffffffffffffffffffffffff167fdab92482973897cc31713956b6a38fa5943c0b44410b47f187fdf3e6993496d360405160405180910390a450505050565b600080610bd761439c565b9050610be48185856143a4565b600191505092915050565b600073ffffffffffffffffffffffffffffffffffffffff163373ffffffffffffffffffffffffffffffffffffffff1603610c5e576040517f08c379a0000000000000000000000000000000000000000000000000000000008152600401610c5590614ff3565b60405180910390fd5b610c67336114d9565b610ca6576040517f08c379a0000000000000000000000000000000000000000000000000000000008152600401610c9d906153cd565b60405180910390fd5b600d60003373ffffffffffffffffffffffffffffffffffffffff1673ffffffffffffffffffffffffffffffffffffffff16815260200190815260200160002060009054906101000a900460ff16610d32576040517f08c379a0000000000000000000000000000000000000000000000000000000008152600401610d299061545f565b60405180910390fd5b610d3b81611441565b610d7a576040517f08c379a0000000000000000000000000000000000000000000000000000000008152600401610d71906154cb565b60405180910390fd5b6000601e60003373ffffffffffffffffffffffffffffffffffffffff1673ffffffffffffffffffffffffffffffffffffffff1681526020019081526020016000208054905003610dff576040517f08c379a0000000000000000000000000000000000000000000000000000000008152600401610df69061555d565b60405180910390fd5b600073ffffffffffffffffffffffffffffffffffffffff16600a600083815260200190815260200160002060060160009054906101000a900473ffffffffffffffffffffffffffffffffffffffff1673ffffffffffffffffffffffffffffffffffffffff1603610ea4576040517f08c379a0000000000000000000000000000000000000000000000000000000008152600401610e9b90614ff3565b60405180910390fd5b610ee3600a600083815260200190815260200160002060060160009054906101000a900473ffffffffffffffffffffffffffffffffffffffff16612ced565b610f22576040517f08c379a0000000000000000000000000000000000000000000000000000000008152600401610f19906155c9565b60405180910390fd5b600a600082815260200190815260200160002060030154610f4233612093565b1015610f83576040517f08c379a0000000000000000000000000000000000000000000000000000000008152600401610f7a90615635565b60405180910390fd5b610fda33600a600084815260200190815260200160002060060160009054906101000a900473ffffffffffffffffffffffffffffffffffffffff16600a600085815260200190815260200160002060030154614331565b33600a600083815260200190815260200160002060060160006101000a81548173ffffffffffffffffffffffffffffffffffffffff021916908373ffffffffffffffffffffffffffffffffffffffff160217905550600f60003373ffffffffffffffffffffffffffffffffffffffff1673ffffffffffffffffffffffffffffffffffffffff1681526020019081526020016000206001601060003373ffffffffffffffffffffffffffffffffffffffff1673ffffffffffffffffffffffffffffffffffffffff168152602001908152602001600020546110ba9190615684565b815481106110cb576110ca6156b8565b5b9060005260206000200160009055600f60003373ffffffffffffffffffffffffffffffffffffffff1673ffffffffffffffffffffffffffffffffffffffff168152602001908152602001600020819080600181540180825580915050600190039060005260206000200160009091909190915055600f60003373ffffffffffffffffffffffffffffffffffffffff1673ffffffffffffffffffffffffffffffffffffffff16815260200190815260200160002080549050601060003373ffffffffffffffffffffffffffffffffffffffff1673ffffffffffffffffffffffffffffffffffffffff1681526020019081526020016000208190555050565b6000600254905090565b600073ffffffffffffffffffffffffffffffffffffffff163373ffffffffffffffffffffffffffffffffffffffff1603611241576040517f08c379a000000000000000000000000000000000000000000000000000000000815260040161123890614ff3565b60405180910390fd5b600d60003373ffffffffffffffffffffffffffffffffffffffff1673ffffffffffffffffffffffffffffffffffffffff16815260200190815260200160002060009054906101000a900460ff16156112ce576040517f08c379a00000000000000000000000000000000000000000000000000000000081526004016112c590615759565b60405180910390fd5b6001600d60003373ffffffffffffffffffffffffffffffffffffffff1673ffffffffffffffffffffffffffffffffffffffff16815260200190815260200160002060006101000a81548160ff0219169083151502179055506040518060a001604052808581526020018460ff16815260200183815260200182815260200160001515815250600e60003373ffffffffffffffffffffffffffffffffffffffff1673ffffffffffffffffffffffffffffffffffffffff16815260200190815260200160002060008201518160000190816113a7919061525c565b5060208201518160010160006101000a81548160ff021916908360ff1602179055506040820151816002015560608201518160030190816113e8919061525c565b5060808201518160040160006101000a81548160ff02191690831515021790555090505050505050565b60008061141d61439c565b905061142a8582856143b6565b61143585858561444a565b60019150509392505050565b6000816009600082815260200190815260200160002060009054906101000a900460ff166114a4576040517f08c379a000000000000000000000000000000000000000000000000000000000815260040161149b906154cb565b60405180910390fd5b600a600084815260200190815260200160002060060160149054906101000a900460ff16915050919050565b60006012905090565b60008073ffffffffffffffffffffffffffffffffffffffff168273ffffffffffffffffffffffffffffffffffffffff1603611549576040517f08c379a0000000000000000000000000000000000000000000000000000000008152600401611540906157c5565b60405180910390fd5b600d60008373ffffffffffffffffffffffffffffffffffffffff1673ffffffffffffffffffffffffffffffffffffffff16815260200190815260200160002060009054906101000a900460ff166115d5576040517f08c379a00000000000000000000000000000000000000000000000000000000081526004016115cc90615831565b60405180910390fd5b600e60008373ffffffffffffffffffffffffffffffffffffffff1673ffffffffffffffffffffffffffffffffffffffff16815260200190815260200160002060040160009054906101000a900460ff169050919050565b60096020528060005260406000206000915054906101000a900460ff1681565b600073ffffffffffffffffffffffffffffffffffffffff163373ffffffffffffffffffffffffffffffffffffffff16036116bb576040517f08c379a00000000000000000000000000000000000000000000000000000000081526004016116b290614ff3565b60405180910390fd5b600660003373ffffffffffffffffffffffffffffffffffffffff1673ffffffffffffffffffffffffffffffffffffffff16815260200190815260200160002060009054906101000a900460ff16611747576040517f08c379a000000000000000000000000000000000000000000000000000000000815260040161173e906158c3565b60405180910390fd5b6009600082815260200190815260200160002060009054906101000a900460ff166117a7576040517f08c379a000000000000000000000000000000000000000000000000000000000815260040161179e906154cb565b60405180910390fd5b6000600a600083815260200190815260200160002060060160146101000a81548160ff021916908315150217905550601c819080600181540180825580915050600190039060005260206000200160009091909190915055601c80549050601d6000838152602001908152602001600020819055506000601b6000838152602001908152602001600020541461187957601a6001601b6000848152602001908152602001600020546118599190615684565b8154811061186a576118696156b8565b5b90600052602060002001600090555b50565b600073ffffffffffffffffffffffffffffffffffffffff163373ffffffffffffffffffffffffffffffffffffffff16036118eb576040517f08c379a00000000000000000000000000000000000000000000000000000000081526004016118e290614ff3565b60405180910390fd5b600b60003373ffffffffffffffffffffffffffffffffffffffff1673ffffffffffffffffffffffffffffffffffffffff16815260200190815260200160002060009054906101000a900460ff16611977576040517f08c379a000000000000000000000000000000000000000000000000000000000815260040161196e90615955565b60405180910390fd5b60016009600084815260200190815260200160002060006101000a81548160ff021916908315150217905550604051806101200160405280878152602001868152602001858152602001670de0b6b3a7640000856119d591906159a4565b81526020018381526020018281526020013373ffffffffffffffffffffffffffffffffffffffff16815260200160001515815260200160001515815250600a6000848152602001908152602001600020600082015181600001556020820151816001019081611a44919061525c565b506040820151816002019081611a5a919061525c565b50606082015181600301556080820151816004015560a0820151816005015560c08201518160060160006101000a81548173ffffffffffffffffffffffffffffffffffffffff021916908373ffffffffffffffffffffffffffffffffffffffff16021790555060e08201518160060160146101000a81548160ff0219169083151502179055506101008201518160060160156101000a81548160ff021916908315150217905550905050600f60003373ffffffffffffffffffffffffffffffffffffffff1673ffffffffffffffffffffffffffffffffffffffff168152602001908152602001600020829080600181540180825580915050600190039060005260206000200160009091909190915055600f60003373ffffffffffffffffffffffffffffffffffffffff1673ffffffffffffffffffffffffffffffffffffffff16815260200190815260200160002080549050601060003373ffffffffffffffffffffffffffffffffffffffff1673ffffffffffffffffffffffffffffffffffffffff1681526020019081526020016000208190555080823373ffffffffffffffffffffffffffffffffffffffff167fd7caaea3950e2bb50b5e2295ff9aea2840b9da1f48f70667aa748ca59941002960405160405180910390a4505050505050565b6000816009600082815260200190815260200160002060009054906101000a900460ff16611ca0576040517f08c379a0000000000000000000000000000000000000000000000000000000008152600401611c97906154cb565b60405180910390fd5b600a600084815260200190815260200160002060000154915050919050565b600073ffffffffffffffffffffffffffffffffffffffff163373ffffffffffffffffffffffffffffffffffffffff1603611d2e576040517f08c379a0000000000000000000000000000000000000000000000000000000008152600401611d2590614ff3565b60405180910390fd5b600660003373ffffffffffffffffffffffffffffffffffffffff1673ffffffffffffffffffffffffffffffffffffffff16815260200190815260200160002060009054906101000a900460ff16611dba576040517f08c379a0000000000000000000000000000000000000000000000000000000008152600401611db1906158c3565b60405180910390fd5b600073ffffffffffffffffffffffffffffffffffffffff168173ffffffffffffffffffffffffffffffffffffffff1603611e29576040517f08c379a0000000000000000000000000000000000000000000000000000000008152600401611e20906157c5565b60405180910390fd5b600d60008273ffffffffffffffffffffffffffffffffffffffff1673ffffffffffffffffffffffffffffffffffffffff16815260200190815260200160002060009054906101000a900460ff16611eb5576040517f08c379a0000000000000000000000000000000000000000000000000000000008152600401611eac90615831565b60405180910390fd5b6001600e60008373ffffffffffffffffffffffffffffffffffffffff1673ffffffffffffffffffffffffffffffffffffffff16815260200190815260200160002060040160006101000a81548160ff0219169083151502179055506014819080600181540180825580915050600190039060005260206000200160009091909190916101000a81548173ffffffffffffffffffffffffffffffffffffffff021916908373ffffffffffffffffffffffffffffffffffffffff160217905550601480549050601560008373ffffffffffffffffffffffffffffffffffffffff1673ffffffffffffffffffffffffffffffffffffffff168152602001908152602001600020819055506000601960008373ffffffffffffffffffffffffffffffffffffffff1673ffffffffffffffffffffffffffffffffffffffff16815260200190815260200160002054146120905760186001601960008473ffffffffffffffffffffffffffffffffffffffff1673ffffffffffffffffffffffffffffffffffffffff168152602001908152602001600020546120519190615684565b81548110612062576120616156b8565b5b9060005260206000200160006101000a81549073ffffffffffffffffffffffffffffffffffffffff02191690555b50565b60008060008373ffffffffffffffffffffffffffffffffffffffff1673ffffffffffffffffffffffffffffffffffffffff168152602001908152602001600020549050919050565b600073ffffffffffffffffffffffffffffffffffffffff163373ffffffffffffffffffffffffffffffffffffffff160361214a576040517f08c379a000000000000000000000000000000000000000000000000000000000815260040161214190614ff3565b60405180910390fd5b612153336114d9565b612192576040517f08c379a0000000000000000000000000000000000000000000000000000000008152600401612189906153cd565b60405180910390fd5b600d60003373ffffffffffffffffffffffffffffffffffffffff1673ffffffffffffffffffffffffffffffffffffffff16815260200190815260200160002060009054906101000a900460ff1661221e576040517f08c379a00000000000000000000000000000000000000000000000000000000081526004016122159061545f565b60405180910390fd5b6009600082815260200190815260200160002060009054906101000a900460ff1661227e576040517f08c379a0000000000000000000000000000000000000000000000000000000008152600401612275906154cb565b60405180910390fd5b600a600082815260200190815260200160002060060160149054906101000a900460ff166122e1576040517f08c379a00000000000000000000000000000000000000000000000000000000081526004016122d890615a21565b60405180910390fd5b612320600a600083815260200190815260200160002060060160009054906101000a900473ffffffffffffffffffffffffffffffffffffffff16612ced565b61235f576040517f08c379a0000000000000000000000000000000000000000000000000000000008152600401612356906155c9565b60405180910390fd5b600a600082815260200190815260200160002060060160159054906101000a900460ff166123c2576040517f08c379a00000000000000000000000000000000000000000000000000000000081526004016123b990615a8d565b60405180910390fd5b6000601e60003373ffffffffffffffffffffffffffffffffffffffff1673ffffffffffffffffffffffffffffffffffffffff168152602001908152602001600020805490500361247757601e60003373ffffffffffffffffffffffffffffffffffffffff1673ffffffffffffffffffffffffffffffffffffffff1681526020019081526020016000208190806001815401808255809150506001900390600052602060002001600090919091909150556125d6565b60005b601e60003373ffffffffffffffffffffffffffffffffffffffff1673ffffffffffffffffffffffffffffffffffffffff1681526020019081526020016000208054905081101561256e5781601e60003373ffffffffffffffffffffffffffffffffffffffff1673ffffffffffffffffffffffffffffffffffffffff1681526020019081526020016000208281548110612516576125156156b8565b5b906000526020600020015403612561576040517f08c379a000000000000000000000000000000000000000000000000000000000815260040161255890615af9565b60405180910390fd5b808060010191505061247a565b50601e60003373ffffffffffffffffffffffffffffffffffffffff1673ffffffffffffffffffffffffffffffffffffffff1681526020019081526020016000208190806001815401808255809150506001900390600052602060002001600090919091909150555b50565b600073ffffffffffffffffffffffffffffffffffffffff163373ffffffffffffffffffffffffffffffffffffffff1603612648576040517f08c379a000000000000000000000000000000000000000000000000000000000815260040161263f90614ff3565b60405180910390fd5b600660003373ffffffffffffffffffffffffffffffffffffffff1673ffffffffffffffffffffffffffffffffffffffff16815260200190815260200160002060009054906101000a900460ff166126d4576040517f08c379a00000000000000000000000000000000000000000000000000000000081526004016126cb906158c3565b60405180910390fd5b600073ffffffffffffffffffffffffffffffffffffffff168173ffffffffffffffffffffffffffffffffffffffff1603612743576040517f08c379a000000000000000000000000000000000000000000000000000000000815260040161273a906157c5565b60405180910390fd5b600d60008273ffffffffffffffffffffffffffffffffffffffff1673ffffffffffffffffffffffffffffffffffffffff16815260200190815260200160002060009054906101000a900460ff166127cf576040517f08c379a00000000000000000000000000000000000000000000000000000000081526004016127c690615831565b60405180910390fd5b6000600e60008373ffffffffffffffffffffffffffffffffffffffff1673ffffffffffffffffffffffffffffffffffffffff16815260200190815260200160002060040160006101000a81548160ff0219169083151502179055506018819080600181540180825580915050600190039060005260206000200160009091909190916101000a81548173ffffffffffffffffffffffffffffffffffffffff021916908373ffffffffffffffffffffffffffffffffffffffff160217905550601880549050601960008373ffffffffffffffffffffffffffffffffffffffff1673ffffffffffffffffffffffffffffffffffffffff168152602001908152602001600020819055506000601560008373ffffffffffffffffffffffffffffffffffffffff1673ffffffffffffffffffffffffffffffffffffffff16815260200190815260200160002054146129aa5760146001601560008473ffffffffffffffffffffffffffffffffffffffff1673ffffffffffffffffffffffffffffffffffffffff1681526020019081526020016000205461296b9190615684565b8154811061297c5761297b6156b8565b5b9060005260206000200160006101000a81549073ffffffffffffffffffffffffffffffffffffffff02191690555b50565b600560009054906101000a900473ffffffffffffffffffffffffffffffffffffffff1681565b6060600480546129e290614f76565b80601f0160208091040260200160405190810160405280929190818152602001828054612a0e90614f76565b8015612a5b5780601f10612a3057610100808354040283529160200191612a5b565b820191906000526020600020905b815481529060010190602001808311612a3e57829003601f168201915b5050505050905090565b600080612a7061439c565b9050612a7d81858561444a565b600191505092915050565b69d3c21bcecceda100000081565b600073ffffffffffffffffffffffffffffffffffffffff163373ffffffffffffffffffffffffffffffffffffffff1603612b05576040517f08c379a0000000000000000000000000000000000000000000000000000000008152600401612afc90614ff3565b60405180910390fd5b600b60003373ffffffffffffffffffffffffffffffffffffffff1673ffffffffffffffffffffffffffffffffffffffff16815260200190815260200160002060009054906101000a900460ff16612b91576040517f08c379a0000000000000000000000000000000000000000000000000000000008152600401612b8890615955565b60405180910390fd5b612b9a81611441565b612bd9576040517f08c379a0000000000000000000000000000000000000000000000000000000008152600401612bd090615b65565b60405180910390fd5b612c18600a600083815260200190815260200160002060060160009054906101000a900473ffffffffffffffffffffffffffffffffffffffff16612ced565b612c57576040517f08c379a0000000000000000000000000000000000000000000000000000000008152600401612c4e906155c9565b60405180910390fd5b600a600082815260200190815260200160002060060160159054906101000a900460ff1615612cbb576040517f08c379a0000000000000000000000000000000000000000000000000000000008152600401612cb290615bd1565b60405180910390fd5b6001600a600083815260200190815260200160002060060160156101000a81548160ff02191690831515021790555050565b60008073ffffffffffffffffffffffffffffffffffffffff168273ffffffffffffffffffffffffffffffffffffffff1603612d5d576040517f08c379a0000000000000000000000000000000000000000000000000000000008152600401612d54906157c5565b60405180910390fd5b600b60008373ffffffffffffffffffffffffffffffffffffffff1673ffffffffffffffffffffffffffffffffffffffff16815260200190815260200160002060009054906101000a900460ff16612de9576040517f08c379a0000000000000000000000000000000000000000000000000000000008152600401612de090615831565b60405180910390fd5b600c60008373ffffffffffffffffffffffffffffffffffffffff1673ffffffffffffffffffffffffffffffffffffffff16815260200190815260200160002060040160009054906101000a900460ff169050919050565b600073ffffffffffffffffffffffffffffffffffffffff163373ffffffffffffffffffffffffffffffffffffffff1603612eaf576040517f08c379a0000000000000000000000000000000000000000000000000000000008152600401612ea690614ff3565b60405180910390fd5b600b60003373ffffffffffffffffffffffffffffffffffffffff1673ffffffffffffffffffffffffffffffffffffffff16815260200190815260200160002060009054906101000a900460ff16612f3b576040517f08c379a0000000000000000000000000000000000000000000000000000000008152600401612f3290615955565b60405180910390fd5b600073ffffffffffffffffffffffffffffffffffffffff168273ffffffffffffffffffffffffffffffffffffffff1603612faa576040517f08c379a0000000000000000000000000000000000000000000000000000000008152600401612fa190614ff3565b60405180910390fd5b6009600082815260200190815260200160002060009054906101000a900460ff1661300a576040517f08c379a0000000000000000000000000000000000000000000000000000000008152600401613001906154cb565b60405180910390fd5b600a600082815260200190815260200160002060060160009054906101000a900473ffffffffffffffffffffffffffffffffffffffff1673ffffffffffffffffffffffffffffffffffffffff163373ffffffffffffffffffffffffffffffffffffffff16146130ae576040517f08c379a00000000000000000000000000000000000000000000000000000000081526004016130a590615c3d565b60405180910390fd5b81600a600083815260200190815260200160002060060160006101000a81548173ffffffffffffffffffffffffffffffffffffffff021916908373ffffffffffffffffffffffffffffffffffffffff160217905550600f60003373ffffffffffffffffffffffffffffffffffffffff1673ffffffffffffffffffffffffffffffffffffffff1681526020019081526020016000206001601060003373ffffffffffffffffffffffffffffffffffffffff1673ffffffffffffffffffffffffffffffffffffffff1681526020019081526020016000205461318e9190615684565b8154811061319f5761319e6156b8565b5b9060005260206000200160009055600f60003373ffffffffffffffffffffffffffffffffffffffff1673ffffffffffffffffffffffffffffffffffffffff168152602001908152602001600020819080600181540180825580915050600190039060005260206000200160009091909190915055600f60003373ffffffffffffffffffffffffffffffffffffffff1673ffffffffffffffffffffffffffffffffffffffff16815260200190815260200160002080549050601060003373ffffffffffffffffffffffffffffffffffffffff1673ffffffffffffffffffffffffffffffffffffffff168152602001908152602001600020819055505050565b6000816009600082815260200190815260200160002060009054906101000a900460ff16613300576040517f08c379a00000000000000000000000000000000000000000000000000000000081526004016132f7906154cb565b60405180910390fd5b600a600084815260200190815260200160002060060160009054906101000a900473ffffffffffffffffffffffffffffffffffffffff16915050919050565b600073ffffffffffffffffffffffffffffffffffffffff163373ffffffffffffffffffffffffffffffffffffffff16036133ae576040517f08c379a00000000000000000000000000000000000000000000000000000000081526004016133a590614ff3565b60405180910390fd5b600660003373ffffffffffffffffffffffffffffffffffffffff1673ffffffffffffffffffffffffffffffffffffffff16815260200190815260200160002060009054906101000a900460ff1661343a576040517f08c379a0000000000000000000000000000000000000000000000000000000008152600401613431906158c3565b60405180910390fd5b600073ffffffffffffffffffffffffffffffffffffffff168173ffffffffffffffffffffffffffffffffffffffff16036134a9576040517f08c379a00000000000000000000000000000000000000000000000000000000081526004016134a0906157c5565b60405180910390fd5b600b60008273ffffffffffffffffffffffffffffffffffffffff1673ffffffffffffffffffffffffffffffffffffffff16815260200190815260200160002060009054906101000a900460ff16613535576040517f08c379a000000000000000000000000000000000000000000000000000000000815260040161352c90615ca9565b60405180910390fd5b600c60008273ffffffffffffffffffffffffffffffffffffffff1673ffffffffffffffffffffffffffffffffffffffff16815260200190815260200160002060040160009054906101000a900460ff16156135c5576040517f08c379a00000000000000000000000000000000000000000000000000000000081526004016135bc90615d15565b60405180910390fd5b6001600c60008373ffffffffffffffffffffffffffffffffffffffff1673ffffffffffffffffffffffffffffffffffffffff16815260200190815260200160002060040160006101000a81548160ff0219169083151502179055506012819080600181540180825580915050600190039060005260206000200160009091909190916101000a81548173ffffffffffffffffffffffffffffffffffffffff021916908373ffffffffffffffffffffffffffffffffffffffff160217905550601280549050601360008373ffffffffffffffffffffffffffffffffffffffff1673ffffffffffffffffffffffffffffffffffffffff168152602001908152602001600020819055506000601760008373ffffffffffffffffffffffffffffffffffffffff1673ffffffffffffffffffffffffffffffffffffffff16815260200190815260200160002054146137a05760166001601760008473ffffffffffffffffffffffffffffffffffffffff1673ffffffffffffffffffffffffffffffffffffffff168152602001908152602001600020546137619190615684565b81548110613772576137716156b8565b5b9060005260206000200160006101000a81549073ffffffffffffffffffffffffffffffffffffffff02191690555b50565b6060816009600082815260200190815260200160002060009054906101000a900460ff16613806576040517f08c379a00000000000000000000000000000000000000000000000000000000081526004016137fd906154cb565b60405180910390fd5b600a6000848152602001908152602001600020600101805461382790614f76565b80601f016020809104026020016040519081016040528092919081815260200182805461385390614f76565b80156138a05780601f10613875576101008083540402835291602001916138a0565b820191906000526020600020905b81548152906001019060200180831161388357829003601f168201915b5050505050915050919050565b6000600160008473ffffffffffffffffffffffffffffffffffffffff1673ffffffffffffffffffffffffffffffffffffffff16815260200190815260200160002060008373ffffffffffffffffffffffffffffffffffffffff1673ffffffffffffffffffffffffffffffffffffffff16815260200190815260200160002054905092915050565b600073ffffffffffffffffffffffffffffffffffffffff163373ffffffffffffffffffffffffffffffffffffffff16036139a3576040517f08c379a000000000000000000000000000000000000000000000000000000000815260040161399a90614ff3565b60405180910390fd5b600660003373ffffffffffffffffffffffffffffffffffffffff1673ffffffffffffffffffffffffffffffffffffffff16815260200190815260200160002060009054906101000a900460ff16613a2f576040517f08c379a0000000000000000000000000000000000000000000000000000000008152600401613a26906158c3565b60405180910390fd5b600073ffffffffffffffffffffffffffffffffffffffff168173ffffffffffffffffffffffffffffffffffffffff1603613a9e576040517f08c379a0000000000000000000000000000000000000000000000000000000008152600401613a95906157c5565b60405180910390fd5b600b60008273ffffffffffffffffffffffffffffffffffffffff1673ffffffffffffffffffffffffffffffffffffffff16815260200190815260200160002060009054906101000a900460ff16613b2a576040517f08c379a0000000000000000000000000000000000000000000000000000000008152600401613b2190615ca9565b60405180910390fd5b600c60008273ffffffffffffffffffffffffffffffffffffffff1673ffffffffffffffffffffffffffffffffffffffff16815260200190815260200160002060040160009054906101000a900460ff16613bb9576040517f08c379a0000000000000000000000000000000000000000000000000000000008152600401613bb090615d81565b60405180910390fd5b6000600c60008373ffffffffffffffffffffffffffffffffffffffff1673ffffffffffffffffffffffffffffffffffffffff16815260200190815260200160002060040160006101000a81548160ff0219169083151502179055506016819080600181540180825580915050600190039060005260206000200160009091909190916101000a81548173ffffffffffffffffffffffffffffffffffffffff021916908373ffffffffffffffffffffffffffffffffffffffff160217905550601680549050601760008373ffffffffffffffffffffffffffffffffffffffff1673ffffffffffffffffffffffffffffffffffffffff168152602001908152602001600020819055506000601360008373ffffffffffffffffffffffffffffffffffffffff1673ffffffffffffffffffffffffffffffffffffffff1681526020019081526020016000205414613d945760126001601360008473ffffffffffffffffffffffffffffffffffffffff1673ffffffffffffffffffffffffffffffffffffffff16815260200190815260200160002054613d559190615684565b81548110613d6657613d656156b8565b5b9060005260206000200160006101000a81549073ffffffffffffffffffffffffffffffffffffffff02191690555b50565b6000816009600082815260200190815260200160002060009054906101000a900460ff16613dfa576040517f08c379a0000000000000000000000000000000000000000000000000000000008152600401613df1906154cb565b60405180910390fd5b600a600084815260200190815260200160002060030154915050919050565b600073ffffffffffffffffffffffffffffffffffffffff163373ffffffffffffffffffffffffffffffffffffffff1603613e88576040517f08c379a0000000000000000000000000000000000000000000000000000000008152600401613e7f90614ff3565b60405180910390fd5b600b60003373ffffffffffffffffffffffffffffffffffffffff1673ffffffffffffffffffffffffffffffffffffffff16815260200190815260200160002060009054906101000a900460ff1615613f15576040517f08c379a0000000000000000000000000000000000000000000000000000000008152600401613f0c90615e13565b60405180910390fd5b6001600b60003373ffffffffffffffffffffffffffffffffffffffff1673ffffffffffffffffffffffffffffffffffffffff16815260200190815260200160002060006101000a81548160ff0219169083151502179055506040518060a001604052808581526020018460ff16815260200183815260200182815260200160001515815250600c60003373ffffffffffffffffffffffffffffffffffffffff1673ffffffffffffffffffffffffffffffffffffffff1681526020019081526020016000206000820151816000019081613fee919061525c565b5060208201518160010160006101000a81548160ff021916908360ff16021790555060408201518160020155606082015181600301908161402f919061525c565b5060808201518160040160006101000a81548160ff021916908315150217905550905050813373ffffffffffffffffffffffffffffffffffffffff167f65ad65975f917fd858ec502327638f93bb796a11943ae9238476b8f5adf04fe360405160405180910390a350505050565b600073ffffffffffffffffffffffffffffffffffffffff163373ffffffffffffffffffffffffffffffffffffffff160361410c576040517f08c379a000000000000000000000000000000000000000000000000000000000815260040161410390614ff3565b60405180910390fd5b600660003373ffffffffffffffffffffffffffffffffffffffff1673ffffffffffffffffffffffffffffffffffffffff16815260200190815260200160002060009054906101000a900460ff16614198576040517f08c379a000000000000000000000000000000000000000000000000000000000815260040161418f906158c3565b60405180910390fd5b6009600082815260200190815260200160002060009054906101000a900460ff166141f8576040517f08c379a00000000000000000000000000000000000000000000000000000000081526004016141ef906154cb565b60405180910390fd5b600a600082815260200190815260200160002060060160149054906101000a900460ff161561425c576040517f08c379a000000000000000000000000000000000000000000000000000000000815260040161425390615d15565b60405180910390fd5b6001600a600083815260200190815260200160002060060160146101000a81548160ff021916908315150217905550601a819080600181540180825580915050600190039060005260206000200160009091909190915055601a80549050601b6000838152602001908152602001600020819055506000601d6000838152602001908152602001600020541461432e57601c6001601d60008481526020019081526020016000205461430e9190615684565b8154811061431f5761431e6156b8565b5b90600052602060002001600090555b50565b61433c83838361444a565b808273ffffffffffffffffffffffffffffffffffffffff168473ffffffffffffffffffffffffffffffffffffffff167fa40b31e04b90cc973385f80342aa89be2400b1c80df94a420f50550025d4ddf660405160405180910390a4505050565b600033905090565b6143b1838383600161453e565b505050565b60006143c284846138ad565b90507fffffffffffffffffffffffffffffffffffffffffffffffffffffffffffffffff81146144445781811015614434578281836040517ffb8f41b200000000000000000000000000000000000000000000000000000000815260040161442b93929190615e33565b60405180910390fd5b6144438484848403600061453e565b5b50505050565b600073ffffffffffffffffffffffffffffffffffffffff168373ffffffffffffffffffffffffffffffffffffffff16036144bc5760006040517f96c6fd1e0000000000000000000000000000000000000000000000000000000081526004016144b39190614eec565b60405180910390fd5b600073ffffffffffffffffffffffffffffffffffffffff168273ffffffffffffffffffffffffffffffffffffffff160361452e5760006040517fec442f050000000000000000000000000000000000000000000000000000000081526004016145259190614eec565b60405180910390fd5b614539838383614715565b505050565b600073ffffffffffffffffffffffffffffffffffffffff168473ffffffffffffffffffffffffffffffffffffffff16036145b05760006040517fe602df050000000000000000000000000000000000000000000000000000000081526004016145a79190614eec565b60405180910390fd5b600073ffffffffffffffffffffffffffffffffffffffff168373ffffffffffffffffffffffffffffffffffffffff16036146225760006040517f94280d620000000000000000000000000000000000000000000000000000000081526004016146199190614eec565b60405180910390fd5b81600160008673ffffffffffffffffffffffffffffffffffffffff1673ffffffffffffffffffffffffffffffffffffffff16815260200190815260200160002060008573ffffffffffffffffffffffffffffffffffffffff1673ffffffffffffffffffffffffffffffffffffffff16815260200190815260200160002081905550801561470f578273ffffffffffffffffffffffffffffffffffffffff168473ffffffffffffffffffffffffffffffffffffffff167f8c5be1e5ebec7d5bd14f71427d1e84f3dd0314c0f7b2291e5b200ac8c7c3b925846040516147069190614d53565b60405180910390a35b50505050565b600073ffffffffffffffffffffffffffffffffffffffff168373ffffffffffffffffffffffffffffffffffffffff160361476757806002600082825461475b9190615e6a565b9250508190555061483a565b60008060008573ffffffffffffffffffffffffffffffffffffffff1673ffffffffffffffffffffffffffffffffffffffff168152602001908152602001600020549050818110156147f3578381836040517fe450d38c0000000000000000000000000000000000000000000000000000000081526004016147ea93929190615e33565b60405180910390fd5b8181036000808673ffffffffffffffffffffffffffffffffffffffff1673ffffffffffffffffffffffffffffffffffffffff16815260200190815260200160002081905550505b600073ffffffffffffffffffffffffffffffffffffffff168273ffffffffffffffffffffffffffffffffffffffff160361488357806002600082825403925050819055506148d0565b806000808473ffffffffffffffffffffffffffffffffffffffff1673ffffffffffffffffffffffffffffffffffffffff168152602001908152602001600020600082825401925050819055505b8173ffffffffffffffffffffffffffffffffffffffff168373ffffffffffffffffffffffffffffffffffffffff167fddf252ad1be2c89b69c2b068fc378daa952ba7f163c4a11628f55a4df523b3ef8360405161492d9190614d53565b60405180910390a3505050565b600081519050919050565b600082825260208201905092915050565b60005b83811015614974578082015181840152602081019050614959565b60008484015250505050565b6000601f19601f8301169050919050565b600061499c8261493a565b6149a68185614945565b93506149b6818560208601614956565b6149bf81614980565b840191505092915050565b600060208201905081810360008301526149e48184614991565b905092915050565b6000604051905090565b600080fd5b600080fd5b600080fd5b600080fd5b7f4e487b7100000000000000000000000000000000000000000000000000000000600052604160045260246000fd5b614a4282614980565b810181811067ffffffffffffffff82111715614a6157614a60614a0a565b5b80604052505050565b6000614a746149ec565b9050614a808282614a39565b919050565b600067ffffffffffffffff821115614aa057614a9f614a0a565b5b614aa982614980565b9050602081019050919050565b82818337600083830152505050565b6000614ad8614ad384614a85565b614a6a565b905082815260208101848484011115614af457614af3614a05565b5b614aff848285614ab6565b509392505050565b600082601f830112614b1c57614b1b614a00565b5b8135614b2c848260208601614ac5565b91505092915050565b600060ff82169050919050565b614b4b81614b35565b8114614b5657600080fd5b50565b600081359050614b6881614b42565b92915050565b6000819050919050565b614b8181614b6e565b8114614b8c57600080fd5b50565b600081359050614b9e81614b78565b92915050565b60008060008060808587031215614bbe57614bbd6149f6565b5b600085013567ffffffffffffffff811115614bdc57614bdb6149fb565b5b614be887828801614b07565b9450506020614bf987828801614b59565b9350506040614c0a87828801614b8f565b925050606085013567ffffffffffffffff811115614c2b57614c2a6149fb565b5b614c3787828801614b07565b91505092959194509250565b600073ffffffffffffffffffffffffffffffffffffffff82169050919050565b6000614c6e82614c43565b9050919050565b614c7e81614c63565b8114614c8957600080fd5b50565b600081359050614c9b81614c75565b92915050565b60008060408385031215614cb857614cb76149f6565b5b6000614cc685828601614c8c565b9250506020614cd785828601614b8f565b9150509250929050565b60008115159050919050565b614cf681614ce1565b82525050565b6000602082019050614d116000830184614ced565b92915050565b600060208284031215614d2d57614d2c6149f6565b5b6000614d3b84828501614b8f565b91505092915050565b614d4d81614b6e565b82525050565b6000602082019050614d686000830184614d44565b92915050565b600080600060608486031215614d8757614d866149f6565b5b6000614d9586828701614c8c565b9350506020614da686828701614c8c565b9250506040614db786828701614b8f565b9150509250925092565b614dca81614b35565b82525050565b6000602082019050614de56000830184614dc1565b92915050565b600060208284031215614e0157614e006149f6565b5b6000614e0f84828501614c8c565b91505092915050565b60008060008060008060c08789031215614e3557614e346149f6565b5b6000614e4389828a01614b8f565b965050602087013567ffffffffffffffff811115614e6457614e636149fb565b5b614e7089828a01614b07565b955050604087013567ffffffffffffffff811115614e9157614e906149fb565b5b614e9d89828a01614b07565b9450506060614eae89828a01614b8f565b9350506080614ebf89828a01614b8f565b92505060a0614ed089828a01614b8f565b9150509295509295509295565b614ee681614c63565b82525050565b6000602082019050614f016000830184614edd565b92915050565b60008060408385031215614f1e57614f1d6149f6565b5b6000614f2c85828601614c8c565b9250506020614f3d85828601614c8c565b9150509250929050565b7f4e487b7100000000000000000000000000000000000000000000000000000000600052602260045260246000fd5b60006002820490506001821680614f8e57607f821691505b602082108103614fa157614fa0614f47565b5b50919050565b7f496e76616c696420616464726573730000000000000000000000000000000000600082015250565b6000614fdd600f83614945565b9150614fe882614fa7565b602082019050919050565b6000602082019050818103600083015261500c81614fd0565b9050919050565b7f4f6e6c7920756e72656769737465726564206c616e6420696e73706563746f7260008201527f2063616e20726567697374657200000000000000000000000000000000000000602082015250565b600061506f602d83614945565b915061507a82615013565b604082019050919050565b6000602082019050818103600083015261509e81615062565b9050919050565b600081519050919050565b60008190508160005260206000209050919050565b60006020601f8301049050919050565b600082821b905092915050565b6000600883026151127fffffffffffffffffffffffffffffffffffffffffffffffffffffffffffffffff826150d5565b61511c86836150d5565b95508019841693508086168417925050509392505050565b6000819050919050565b600061515961515461514f84614b6e565b615134565b614b6e565b9050919050565b6000819050919050565b6151738361513e565b61518761517f82615160565b8484546150e2565b825550505050565b600090565b61519c61518f565b6151a781848461516a565b505050565b5b818110156151cb576151c0600082615194565b6001810190506151ad565b5050565b601f821115615210576151e1816150b0565b6151ea846150c5565b810160208510156151f9578190505b61520d615205856150c5565b8301826151ac565b50505b505050565b600082821c905092915050565b600061523360001984600802615215565b1980831691505092915050565b600061524c8383615222565b9150826002028217905092915050565b615265826150a5565b67ffffffffffffffff81111561527e5761527d614a0a565b5b6152888254614f76565b6152938282856151cf565b600060209050601f8311600181146152c657600084156152b4578287015190505b6152be8582615240565b865550615326565b601f1984166152d4866150b0565b60005b828110156152fc578489015182556001820191506020850194506020810190506152d7565b868310156153195784890151615315601f891682615222565b8355505b6001600288020188555050505b505050505050565b600081905092915050565b60006153448261493a565b61534e818561532e565b935061535e818560208601614956565b80840191505092915050565b60006153768284615339565b915081905092915050565b7f4e6f742061207665726966696564206275796572000000000000000000000000600082015250565b60006153b7601483614945565b91506153c282615381565b602082019050919050565b600060208201905081810360008301526153e6816153aa565b9050919050565b7f4f6e6c792072656769737465726564206275796572732063616e2063616c6c2060008201527f746869732066756e6374696f6e00000000000000000000000000000000000000602082015250565b6000615449602d83614945565b9150615454826153ed565b604082019050919050565b600060208201905081810360008301526154788161543c565b9050919050565b7f496e76616c696420504944000000000000000000000000000000000000000000600082015250565b60006154b5600b83614945565b91506154c08261547f565b602082019050919050565b600060208201905081810360008301526154e4816154a8565b9050919050565b7f54686973206c616e64206973206e6f742072657175657374656420627920796f60008201527f7500000000000000000000000000000000000000000000000000000000000000602082015250565b6000615547602183614945565b9150615552826154eb565b604082019050919050565b600060208201905081810360008301526155768161553a565b9050919050565b7f4e6f7420612076657269666965642073656c6c65720000000000000000000000600082015250565b60006155b3601583614945565b91506155be8261557d565b602082019050919050565b600060208201905081810360008301526155e2816155a6565b9050919050565b7f496e73756666696369656e742062616c616e6365000000000000000000000000600082015250565b600061561f601483614945565b915061562a826155e9565b602082019050919050565b6000602082019050818103600083015261564e81615612565b9050919050565b7f4e487b7100000000000000000000000000000000000000000000000000000000600052601160045260246000fd5b600061568f82614b6e565b915061569a83614b6e565b92508282039050818111156156b2576156b1615655565b5b92915050565b7f4e487b7100000000000000000000000000000000000000000000000000000000600052603260045260246000fd5b7f4f6e6c7920756e72656769737465726564206275796572732063616e2072656760008201527f6973746572000000000000000000000000000000000000000000000000000000602082015250565b6000615743602583614945565b915061574e826156e7565b604082019050919050565b6000602082019050818103600083015261577281615736565b9050919050565b7f496e76616c69642073656c6c6572206164647265737300000000000000000000600082015250565b60006157af601683614945565b91506157ba82615779565b602082019050919050565b600060208201905081810360008301526157de816157a2565b9050919050565b7f4e6f742061207265676973746572656420627579657200000000000000000000600082015250565b600061581b601683614945565b9150615826826157e5565b602082019050919050565b6000602082019050818103600083015261584a8161580e565b9050919050565b7f4f6e6c79206c616e6420696e73706563746f72732063616e2063616c6c20746860008201527f69732066756e6374696f6e000000000000000000000000000000000000000000602082015250565b60006158ad602b83614945565b91506158b882615851565b604082019050919050565b600060208201905081810360008301526158dc816158a0565b9050919050565b7f4f6e6c7920726567697374657265642073656c6c6572732063616e2063616c6c60008201527f20746869732066756e6374696f6e000000000000000000000000000000000000602082015250565b600061593f602e83614945565b915061594a826158e3565b604082019050919050565b6000602082019050818103600083015261596e81615932565b9050919050565b7f4e487b7100000000000000000000000000000000000000000000000000000000600052601260045260246000fd5b60006159af82614b6e565b91506159ba83614b6e565b9250826159ca576159c9615975565b5b828204905092915050565b7f4e6f742061207665726966696564204c616e6400000000000000000000000000600082015250565b6000615a0b601383614945565b9150615a16826159d5565b602082019050919050565b60006020820190508181036000830152615a3a816159fe565b9050919050565b7f54686973206c616e64206973206e6f74206f6e2073616c650000000000000000600082015250565b6000615a77601883614945565b9150615a8282615a41565b602082019050919050565b60006020820190508181036000830152615aa681615a6a565b9050919050565b7f416c72656164792072657175657374656420666f722074686973206c616e6400600082015250565b6000615ae3601f83614945565b9150615aee82615aad565b602082019050919050565b60006020820190508181036000830152615b1281615ad6565b9050919050565b7f496e76616c6964204c616e642049440000000000000000000000000000000000600082015250565b6000615b4f600f83614945565b9150615b5a82615b19565b602082019050919050565b60006020820190508181036000830152615b7e81615b42565b9050919050565b7f54686973206c616e6420697320616c7265616479206f6e2073616c6500000000600082015250565b6000615bbb601c83614945565b9150615bc682615b85565b602082019050919050565b60006020820190508181036000830152615bea81615bae565b9050919050565b7f4f6e6c79206f776e65722063616e207472616e73666572206c616e6400000000600082015250565b6000615c27601c83614945565b9150615c3282615bf1565b602082019050919050565b60006020820190508181036000830152615c5681615c1a565b9050919050565b7f4e6f74206120726567697374657265642073656c6c6572000000000000000000600082015250565b6000615c93601783614945565b9150615c9e82615c5d565b602082019050919050565b60006020820190508181036000830152615cc281615c86565b9050919050565b7f4c616e6420616c72656164792076657269666965640000000000000000000000600082015250565b6000615cff601583614945565b9150615d0a82615cc9565b602082019050919050565b60006020820190508181036000830152615d2e81615cf2565b9050919050565b7f53656c6c657220616c72656164792072656a6563746564000000000000000000600082015250565b6000615d6b601783614945565b9150615d7682615d35565b602082019050919050565b60006020820190508181036000830152615d9a81615d5e565b9050919050565b7f4f6e6c7920756e726567697374657265642073656c6c6572732063616e20726560008201527f6769737465720000000000000000000000000000000000000000000000000000602082015250565b6000615dfd602683614945565b9150615e0882615da1565b604082019050919050565b60006020820190508181036000830152615e2c81615df0565b9050919050565b6000606082019050615e486000830186614edd565b615e556020830185614d44565b615e626040830184614d44565b949350505050565b6000615e7582614b6e565b9150615e8083614b6e565b9250828201905080821115615e9857615e97615655565b5b9291505056fea26469706673582212202924f7ef0ef4f55d7d57ea859e4047dd21a3788c0b485e9271bf7d30089fadc464736f6c63430008180033",
  "linkReferences": {},
  "deployedLinkReferences": {}
}